:020000040800F2
:1000000048070020A10100085B260008DF22000845
:1000100059260008D3110008F3270008000000004B
:10002000000000000000000000000000952700080C
:10003000D5110008000000005D2600089727000881
:10004000BB010008BB010008BB010008BB010008A0
:10005000BB010008BB010008BB010008BB01000890
:10006000BB010008BB010008BB010008BB01000880
:10007000BB010008BB010008BB010008BB01000870
:10008000BB010008BB010008BB010008BB01000860
:10009000BB010008BB010008BB010008BB01000850
:1000A000BB010008BB010008BB010008BB01000840
:1000B000BB010008BB010008BB010008BB01000830
:1000C000BB010008BB010008BB010008BB01000820
:1000D000BB010008BB010008BB010008BB01000810
:1000E000BB010008BB010008BB01000800F002F8DA
:1000F00000F047F80AA090E8000C82448344AAF17B
:100100000107DA4501D100F03CF8AFF2090EBAE878
:100110000F0013F0010F18BFFB1A43F0010318473B
:100120006832000088320000103A24BF78C878C1D5
:10013000FAD8520724BF30C830C144BF04680C60ED
:10014000704700000023002400250026103A28BF35
:1001500078C1FBD8520728BF30C148BF0B60704739
:10016000662903F0B880002070471FB500F0F0FA50
:1001700004000020002102F029FDE0601FBD10B541
:1001800010BD00F0E9FB1146FFF7EFFF02F062FC43
:1001900000F007FC03B4FFF7F2FF03BC00F04AFCD9
:1001A0000948804709480047FEE7FEE7FEE7FEE70B
:1001B000FEE7FEE7FEE7FEE7FEE7FEE70448054947
:1001C000054A064B70470000F1270008ED000008C3
:1001D0004801002048070020480300204803002071
:1001E0000FB41CB50C0007AA009001D02044401E9B
:1001F000074B7B4469460190069800F088FA002C72
:1002000003D06946002000F095FA1CBC5DF814FB91
:10021000490500002DE9F0410E4604460020206209
:100220002046E168884730B3252805D0D4E901216C
:100230009047206A401CF2E7E16820460027884783
:10024000050018D0A5F14100192802D820354FF437
:1002500000673246294620462760FFF781FF40B1FC
:10026000012804D0F61D26F007060836D8E7361D0B
:10027000D6E72846DAE7206ABDE8F0814FF00002B1
:1002800000B5134694469646203922BFA0E80C508C
:10029000A0E80C50B1F12001BFF4F7AF090728BF67
:1002A000A0E80C5048BF0CC05DF804EB890028BFE3
:1002B00040F8042B08BF704748BF20F8022B11F00C
:1002C000804F18BF00F8012B704770477047704788
:1002D00010B500F041FA006810BD10B5044600F0FA
:1002E0003BFA046010BD70472DE9FF4F0C461E46D7
:1002F0004FF0FF378BB0D2E90001DDF860800A9043
:100300008A46C1F30A5505B93D46002108464FF01B
:100310000000BAF1000F00F4400005DA00EB8000A5
:100320004FF4400101EA50004FEA9059B9F1010F32
:1003300000DDB9460A9850EA4A000ED044F6105043
:10034000A5F2FF3545432F14B8F1000F1ED07542BA
:10035000291E1EDDC9F100021CE0B8F1010F4FF0AB
:10036000000001D0302103E0F24305E02154401C9D
:10037000B042FBDB30460022002121540B99C1F82A
:100380000880C1E900200FB0BDE8F08FBD1B6D1CD7
:10039000DEE74A4600DA694206A800F067FA06ABD3
:1003A00093E8070003AB83E8070050460A9900F082
:1003B00048FB8DE80700A0F500501F380090039817
:1003C000002D0ADD42F21F014A460844002303A91A
:1003D0000390684600F0B1FD09E0A0F500504A46E0
:1003E0001F38002303A90390684600F0BBFD8DE889
:1003F00007000004000C03D04FF0FF30410800E07C
:100400001046B8F1000F03D00022009215461EE0FE
:10041000751E05D400F0A4F9303262556D1EF9D571
:10042000B3460122084302D000227F1C04E020785A
:10043000302801D100227F1E002A099784D01DE0B8
:10044000112D07DA00F08CF9303262556D1C50EA3C
:100450000102F5D1084302D00098C8B10EE0002196
:10046000681E05E0235C625C63542254401E491CF4
:100470008142F7DBAB46A81B401E0990002004F820
:100480000B000B98099AC0F80880C0E9002B7AE7A6
:1004900011264FF0000857E72DE9F04F8846044633
:1004A000D21D22F0070191B0D1E90001CDE90A0186
:1004B00002F0A0F902460B98C00F01D02D2007E0F2
:1004C0002068810701D52B2002E0202101EAC0002D
:1004D000032A099001D0072A05DB0346414620463E
:1004E00000F084F90BE12078800601D5E06900E096
:1004F0000620B8F1650F814606D0B8F1660F18D016
:10050000B8F1670F70D131E00020B9F1110F009000
:1005100001DB112301E009F101030AAA01A90CA8DA
:10052000FFF7E2FEDDE90C70002609F101058346C4
:1005300047E001204B4600904FF000470AAA01A96E
:100540000CA8FFF7D1FEDDE90DB00C995D46002641
:1005500010B909F101000D18B9EB050003D4C0F181
:10056000FF3609F10105A5EB09002BE0B9F1010FF8
:1005700001DA4FF001090020B9F1110F009048464F
:1005800001DD112300E003460AAA01A90CA8FFF728
:10059000ABFEDDE90C704D4600268346207800074F
:1005A0000AD4AB4500DA5D4601A8012D04DD4119EE
:1005B00011F8011C302907D04F4502DA17F1040F5A
:1005C00004DA012082460FE06D1EEEE7002F02DC08
:1005D000ED1B3E4403E0781CA84200DD7D1CB81BE7
:1005E00000F1010A4FF000472078000703D4AA4524
:1005F00001DB4FF0FF3A0021B7F1004F0DF1430846
:100600008DF8431024D002202B23002F01DA7F42E3
:100610002D230A21021EA0F1010000DC5FB197FB2F
:10062000F1FC97FBF1F201FB1C7C17460CF1300C3E
:1006300008F801CDEEE7A8F1010003702188090553
:1006400001D5452100E06521A0F1010800F8011C59
:1006500009980FA9A1EB0807FF1D00B1012041195E
:1006600001EBEA70A1693844081A401EA0612078A5
:10067000C00602D42046AFF30080099828B1D4E91F
:1006800001219047206A401C20622078C00622D5B4
:100690002046AFF300801EE0002E04DBB34502DDF0
:1006A00001A8805D00E03020D4E901219047206A54
:1006B000401C2062761CAAF101005FEA000A0AD100
:1006C00000F046F8C0680168405CD4E90121904719
:1006D000206A401C2062281EA5F10105DCDC07E031
:1006E000D4E9012118F8010B9047206A401C2062D0
:1006F000381EA7F10107F3DC2046AFF3008003208A
:1007000011B041E601694A1C02610878704700B5E2
:100710008FB0CDE901310021059105497944CDE93A
:10072000031011466846FFF775FD0FB000BD0000CD
:10073000E5FFFFFF0A6802F8010B0A607047D1E984
:1007400000239A4202D2531C0B60107070470000C5
:10075000004870470801002000487047E80000206A
:1007600030B5B0F10A024FEA900E71F100034EEA83
:10077000817EB0EB0E0061EB91014FEA101E4EEA54
:10078000017E10EB0E0041EB11114FEA102E4EEAE4
:10079000016E10EB0E0041EB11214FEA104E4EEAB4
:1007A000014E10EB0E0041EB1141401841F10001E8
:1007B0004FEAD00040EA41704FEAD10110EB8005CA
:1007C0004FEA810444EA907444EB01046D1944EB50
:1007D0000404521BA3414FF0000348BF0A3200D566
:1007E00030BD401C41F1000130BD00002DE9F04159
:1007F0001F46044603260168072A01F4006004DB53
:1008000008B116A505E016A503E008B115A500E09E
:1008100015A521F010002060A069C01EA0610FB1D5
:10082000401EA0612046AFF300804FB1D4E9012102
:1008300038469047206A401C2062C01C206206E0B7
:10084000206AFAE7D4E9012115F8010B9047761EDA
:10085000F8D22046AFF30080BDE8F0814E414E0053
:100860006E616E00494E4600696E66002DE9F047E4
:10087000814616468AB0354878440DC88DE80D008B
:1008800032487844801C03AC0DC884E80D0041F662
:100890009B300844372190FBF1F290FBF1F5A5F174
:1008A000800501FB12041B3C02D56442012000E0DC
:1008B0000020DFF898A080460027FA44AAF1BE0A7B
:1008C0000EE0E0070AD03246684607EB47010123F5
:1008D0000AEB810100F046FB8DE8070064107F1CE5
:1008E000002CEED1194F7F44AE3F19E0E80715D038
:1008F00007EB04100DF1180A90E80E008AE80E00CC
:10090000C068F04201D1981908903246012306A927
:1009100003A800F027FB03AB83E807006D10641CFD
:10092000002DE3D14FF0010332466946B8F1000FC4
:1009300003A802D000F001FB01E000F013FBC9E9BD
:100940000001C9F808200AB0BDE8F087F42A0000C9
:1009500000487047E80000207546FFF7F9FFAE46F3
:1009600005006946534620F00700854618B020B5BB
:10097000FFF724FCBDE820404FF000064FF00007D1
:100980004FF000084FF0000B21F00701AC46ACE837
:10099000C009ACE8C009ACE8C009ACE8C0098D46A4
:1009A000704710B50446AFF300802046BDE8104004
:1009B000FFF7F0BB4FF0013C50F8042B51F8043B1B
:1009C0009A4221D1A2EB0C03934313EACC1317D123
:1009D00050F8042B51F8043B9A4215D1A2EB0C03BA
:1009E000934313EACC130BD150F8042B51F8043B7A
:1009F0009A4209D1A2EB0C03934313EACC13DBD048
:100A00004FF00000704700BFD01A01BAB1FA81F16F
:100A100001F0180122FA01F0CB40C1F12001DBB254
:100A2000C0B2C01A2CFA01F3D11A914311EAC311D2
:100A3000E6D1704701491820ABBEFEE72600020050
:100A400070475FEA400C08BF91F0000F4FEA8C231B
:100A50004FEAC12243EA51514FEA1C5018BF00F53A
:100A6000F0404FEA300018BF41F000415FEA6C5C93
:100A700000F02980BCF1FF3F08BF40F08040704784
:100A8000130C06BF12044FF0100C4FF0000C130EA5
:100A900004BF12020CF1080C130F04BF12010CF179
:100AA000040C930F04BF92000CF1020CD30F04BF8F
:100AB00052000CF1010C11464FF00002A0F11F0092
:100AC000A0EB0C00704711F0004F08BF704731F0E9
:100AD00000413FF4D5AF0B0C06BF09044FF0100CDA
:100AE0004FF0000C0B0E04BF09020CF1080C0B0FA9
:100AF00004BF09010CF1040C8B0F04BF89000CF139
:100B0000020CCB0F04BF49000CF1010CCCF1200307
:100B1000A0EB0C0022FA03F302FA0CF241EA030103
:100B200000F10100704720F07F4C80EA030023F0C1
:100B30007F47ACEB070303F57C5300F0004003F163
:100B4000FF032DE980494FEA154B09B44FEA1443DE
:100B500025EA0B4E24EA03480FF2042606EB13277E
:100B600049083E785FEA320203FB0667C7F50007D3
:100B700007FB06F64FEA54374FEAD64606F102065F
:100B800007FB066CCCF1005C4FEA1C472CEA074CD3
:100B900007FB06F40CFB06F504EB15464FEA961628
:100BA00034BF00204FF000404FEAD13706FB07FC6E
:100BB0004FEA1C4C0CFB0BF7D21B03FB0CF761EB51
:100BC00007010CFB0EF7B0EB074072EB17420CFB72
:100BD00008F734BFA2EB0742B2EB074261EB1741C3
:100BE0004FEA0C444FEA910706FB07FC4FEA1C4C06
:100BF0000CFB0BF7B0EBC74072EB573203FB0CF763
:100C000034BFA2EBC742B2EBC74261EB57310CFBDA
:100C10000EF7B0EBC70072EB57720CFB08F734BF4E
:100C2000A2EBC702B2EBC70261EB5771039F4FEA19
:100C3000816141EA921104EBCC044FEAD1374FEACB
:100C4000826206FB07FC42EA90124FEA80604FEA9C
:100C50001C4C0CFB0BF7D21B03FB0CF761EB0701E1
:100C60000CFB0EF7B0EB074072EB17420CFB08F7DA
:100C700034BFA2EB0742B2EB074261EB17414FEAE8
:100C80008C554FEA910704EB9C2406FB07FC4FEAC6
:100C90001C4C0CFB0BF7B0EBC74072EB573203FB5D
:100CA0000CF734BFA2EBC742B2EBC74261EB57313E
:100CB0000CFB0EF7B0EBC70072EB57720CFB08F79A
:100CC00034BFA2EBC702B2EBC70261EB577115EB61
:100CD0004C254FEA816141EA92114FEA82624FEA64
:100CE000D13742EA901206FB07FC44F100044FEAB8
:100CF00080604FEA1C4C0CFB0BF7D21B03FB0CF77C
:100D000061EB07010CFB0EF7B0EB074072EB1742EB
:100D10000CFB08F734BFA2EB0742B2EB074261EBD2
:100D2000174115EB1C154FEA813141EA92414FEA18
:100D3000823242EA90424FEA80304FEA0C7644F128
:100D4000000448EA03434EEA0B484FF0000EB2EBB2
:100D5000080C71EB030724BF624639464EEB0E0EBA
:100D60004FF0000B0018524149414BEB0B0BB2EB1B
:100D7000080C71EB03077BF1000B24BF6246394678
:100D80004EEB0E0E4FF0000B0018524149414BEB59
:100D90000B0BB2EB080C71EB03077BF1000B24BFCC
:100DA000624639464EEB0E0E51EA020718BF46F076
:100DB000010616EB0E7655F1000254F1000103D541
:100DC000BDE88901BDE80088BDE88901BDE80048AB
:100DD000B619524141EB0101A3F101037047808034
:100DE0007F7E7D7C7B7A7978777676757473727185
:100DF00071706F6E6E6D6C6C6B6A6A69686867663D
:100E000066656464636362616160605F5F5E5E5DCE
:100E10005D5C5C5B5B5A5A59595858575756565542
:100E200055555454535352525251515050504F4FA4
:100E30004F4E4E4D4D4D4C4C4C4B4B4B4A4A4A49F4
:100E40004949484848474747474646464545454437
:100E50004444444343434342424242414141002BC4
:100E60009C4630D477002BD01CB54FEA370703B42B
:100E70004FF010004FF01001BAF1000F06D0BCF196
:100E8000000FDCBF40F0080040F008014FF0000008
:100E90000FBCBDE810400BF1010BBBF1010F08BF07
:100EA0005FEA170722BF12F1010211F101014FF0B1
:100EB000004143F1000300F0004043EA00007047A6
:100EC000F9D35708D0E746EA064613F1400F4FEA38
:100ED00016461FDD13F1200FDFBF16430A4600211F
:100EE00020335B42BED0C3F1200746EA064602FA31
:100EF00007F74FEA164646EA0706C3F1200722FA2B
:100F000003F201FA07F721FA03F14FF0000342EA76
:100F10000702A7E746EA020646EA06464FEA1646F1
:100F200046EA0106BCBF46EA0646360C4FF000030F
:100F30004FF000024FF0000194E72DE9804C9A46F3
:100F4000934670B491E8380007C831EA400C48BFB6
:100F500034EA430C03D5FFF7E6FDFFF780FFF0BC52
:100F6000BDE8008C2DE9804C9A46934670B491E818
:100F7000380007C810F0804F08BF13F0804F03D12E
:100F800000F005F8FFF76BFFF0BCBDE8008C20F027
:100F90007F4780EA030023F07F4C07EB0C03A3F5A7
:100FA0007C5300F00040A3F1FE0392F0000F00F02C
:100FB000B38095F0000F00F077802DE901494FEAEA
:100FC00011404FEA144621EA004800FB06FC24EADF
:100FD000064708FB06F607FB08F800FB07F718EBC7
:100FE00006484CEB164C4FEA124B18EB07484FEAF9
:100FF00015464CEB174022EA0B4E0BFB06FC25EA8C
:1010000006470EFB06F607FB0EFE0BFB07F71EEB73
:10101000064E4CEB164C4FF000061EEB074E4CEB09
:10102000174B18EB0B0840F1000018EB0E0B58EBB8
:10103000000840F100008F1A4FF000013CBFC94387
:10104000661B14BFB5EB040C00213CBFC943F61B63
:101050004FEA17444EEA8E0E27EA04454FEA1C4732
:1010600004FB07622CEA074C05FB07F70CFB05F6AF
:1010700004FB0CFC16EB074642EB174216EB0C4642
:1010800042EB1C421BEB060658EB0202414146EACA
:101090009E0601D5BDE80189B619524141EB010117
:1010A000A3F10103BDE801894FEA14454FEA114756
:1010B00024EA054621EA074C05FB07F406FB07F77F
:1010C0000CFB06F105FB0CFC11EB074144EB17444C
:1010D0004FEA124711EB0C4144EB1C4422EA074C47
:1010E00005FB07F206FB07F70CFB06F605FB0CFCFD
:1010F00016EB074642EB174216EB0C4642EB1C453B
:101100006A1854F1000148BF7047B619524141EBCB
:101110000101A3F10103704795F0000F37D04FEAAA
:1011200011424FEA144721EA024624EA074C02FB27
:1011300007F106FB07F70CFB06F402FB0CFC14EBB3
:10114000074441EB17414FEA154714EB0C4441EBC0
:101150001C4125EA074C02FB07F506FB07F70CFBD1
:1011600006F602FB0CFC16EB074645EB174516EBA3
:101170000C4645EB1C42121951F1000148BF704763
:10118000B619524141EB0101A3F1010370474FEA47
:1011900014454FEA114724EA054621EA074C05FBAE
:1011A00007F106FB07F70CFB06F24FF0000605FB04
:1011B0000CFC12EB074241EB174112EB0C4251EBD6
:1011C0001C4148BF7047921841EB0101A3F1010394
:1011D0007047FEE77047000070B5044600F004F960
:1011E0000546601C02D004480078044400F0FCF876
:1011F000401BA042FAD370BD2C0000202DE9F84F0F
:10120000DFF8B891002409F1040A0AF1040B23461F
:101210000F270BF1040EC9E00125A5402A40AA4280
:101220007DD1674ED1F804C0ACEB0608B44532D08E
:1012300014DCBCF1030F3AD009DCBCF1000F2AD05A
:10124000BCF1010F1CD0BCF1020F31D11DE0BCF18B
:10125000110F17D0BCF1120F2AD119E0B8F5881F71
:1012600019D006DCB8F5803F15D0B8F5801F1FD126
:1012700011E0B8F5001F0ED0B8F5041F18D10AE030
:10128000CB6815E0CB681B1D12E0CB6808330FE07C
:10129000CB680C330CE08B682BB1012B4FF00803AB
:1012A00003D0456104E0042302E0056100E000236F
:1012B000FF2A01D8064601E000F104064FEA840542
:1012C00001D9A5F12005D6F8008007FA05FC28EA27
:1012D0000C0803FA05F548EA0508C6F800804D68D1
:1012E000ED0062D5374DAE6946F00106AE61AD69DD
:1012F00024F0030605F001050095334D06EB050CBF
:10130000DCF80850A607360F07FA06F825EA0805A4
:10131000DFF8B880404503D14FF0000817E044E003
:10132000DFF8AC80404502D14FF001080FE0DFF854
:10133000A480404502D14FF0020808E0DFF8988011
:10134000404502D14FF0030801E04FF0040808FACD
:1013500006F848EA0508CCF808804D68D9F800601E
:10136000ED034D4601D5164300E096432E604D68CF
:10137000DAF80060AD03554601D5164300E0964308
:101380002E604D68DBF80060ED025D4601D5164326
:1013900000E096432E604D68DEF80060AD027546B1
:1013A00001D5164300E096432E60641C0D682A4662
:1013B000E5407FF431AFBDE8F88F00000004014044
:1013C0000000111000100240000001400008014020
:1013D000000C014000100140001401400AB10161FD
:1013E00070470904FBE7000001488068704700006F
:1013F0002C00002070B5040025D094F83D00002595
:1014000020B984F83C50204600F04EF9242084F89E
:101410003D002068016821F0010101602068016839
:1014200041F4004101602068016821F4004101603D
:1014300000F088FA4D4A6168914201D84C4900E0B9
:101440004C49884201D2012070BD4B492368B0FB52
:10145000F1F15E6826F03F060E435E6063689342DA
:1014600006D94FF4967359434FF47A73B1FBF3F1F5
:101470002368491C1E6A26F03F06314319626168E1
:10148000914210D84900401EB0FBF1F2521CC2F349
:101490000B02042A01D2042022E0B0FBF1F0401C30
:1014A000C0F30B001CE0A268F2B301EBC10303EB35
:1014B0000116431EB3FBF6F35B1C43F480431B058C
:1014C00049D092B301EBC10202EB0111401EB0FB07
:1014D000F1F0401CC0F30B0040F4804040F40040A9
:1014E0002168CA694CF6FF739A431043C861D4E976
:1014F000071001432068026822F0C0021143016016
:10150000D4E9030101432068826848F2FF339A431B
:1015100011438160D4E9050108432168CA6822F0BB
:10152000FF021043C86001E00EE016E02068016889
:1015300041F0010101602564202084F83D0025630D
:1015400084F83E50002070BD01EB4106431EB3FB02
:10155000F6F35B1CB3E70120C2E701EB4101401E3B
:10156000B0FBF1F0401CC0F30B00B7E7A086010010
:1015700080841E0000093D0040420F002DE9F84F15
:101580001F4690468A460446DDF82890FFF72CFF58
:10159000054694F83D0020287FD1192301224049B7
:1015A0002046009500F028FF002876D194F83C00F2
:1015B000012872D0012084F83C0020680168C90726
:1015C00003D1016841F0010101602068016821F444
:1015D00000610160212084F83D00102084F83E0065
:1015E00000262664C4F824806785608D20852D48F8
:1015F000E0622B464A465146204600F089FE90B9EB
:10160000206841698069009036E02A4649462046B4
:1016100000F071FF50B1206C042804D120680168EB
:1016200041F4007101600120BDE8F88F606A216813
:1016300000780861606A401C6062618D491E6185A6
:10164000218D491E89B2218522685369DB435B07DE
:101650000BD451B100781061606A401C6062608DEB
:10166000401E6085208D401E20852A464946204622
:1016700000F09CFE0028CED1208D0028C5D154F862
:101680003D0B016841F400710160202004F81E093F
:10169000E67766770020C7E7FFE70220C4E700008F
:1016A000020010000000FFFF10B586B0002100917D
:1016B00001910291039100680F4988421AD10F4CA1
:1016C000A06940F00800A061A069694600F0080028
:1016D0000490C0200090122001900320039008483D
:1016E000FFF78CFDE06940F40010E061E06900F470
:1016F0000010049006B010BD0054004000100240DD
:10170000000C0140024881680278114481607047F2
:101710002C000020074810B5016841F0100101605D
:10172000032000F067F80F2000F006F800F024F81E
:10173000002010BD0020024070B50D4D04464FF44E
:101740007A712878B1FBF0F00A490968B1FBF0F032
:1017500000F0B1FD48B9102C07D200222146501EDE
:1017600000F028F800206C6070BD012070BD000002
:101770002C000020380000200C4808B5816941F099
:1017800001018161816901F001010091C16941F0AC
:101790008051C161C06900F08050009004484168E8
:1017A00021F0E06141F00071416008BD001002408D
:1017B00000000140F0B40E4B1B680C46C3F302233B
:1017C000C3F10705042D00D90425191D072901D2ED
:1017D000002300E0DB1E012606FA05F1491E214028
:1017E00099409E40761E16403143F0BC01F016B879
:1017F0000CED00E0064900F0070208684FF6FF0311
:10180000184040EA0220034A104308607047000075
:101810000CED00E00000FA052DE9F0470F46050049
:1018200061D0434E306800F00700B84209D23068FA
:1018300020F0070038433060306800F00700B842FD
:1018400051D128683B4C810712D5400703D5606809
:1018500040F4E06060602878000703D5606840F4D9
:10186000605060606068A96820F0F0000843606024
:101870002878C00728D06868012810D0216802287D
:1018800010D0890700292EDA616821F00301014395
:101890006160FFF7A9FD804641F288390DE02168BB
:1018A0008903EFE78901EDE7FFF79EFDA0EB080153
:1018B000494502D90320BDE8F0876068696800F0F7
:1018C0000C00B0EB810FEFD1306800F00700B84298
:1018D0000BD9306820F0070038433060306800F0E2
:1018E0000700B84201D00120E5E72878400705D578
:1018F0006068E96820F4E0600843606028780007C9
:1019000006D56068296920F4605040EAC100606033
:1019100000F028F86168084AC1F30311515CC8401F
:101920000649086006480068FFF706FF0020C2E786
:101930000020024000100240DA3200083800002087
:10194000300000200448054900684968044AC1F392
:101950000221515CC840704738000020001002404E
:10196000EA32000812A185B00FC98DE80F0014A05B
:10197000144A006804905168134801F00C03042BCA
:1019800010D0082B0ED1C1F38343C9031DF8030007
:101990000AD5516804AAC1F34041515C0A4A504338
:1019A000B0FBF1F005B0704708494843FAE7000082
:1019B00002030405060708090A0B0C0D0E0F101090
:1019C000010200000010024000127A0000093D00F0
:1019D0002DE9F84F040070D02078C04DC00749D0E1
:1019E0006868C0F38100012807D06868C0F38100EF
:1019F000022809D16868C00306D52868800339D554
:101A000060680028E7D035E06068B0F5803F0BD013
:101A100010B1B0F5A02F11D0286820F480302860D4
:101A2000286820F4802002E0286840F48030286094
:101A3000606890B1FFF7D8FC06460AE0286840F4D9
:101A400080202860F0E700BFFFF7CEFC801B6428F1
:101A500073D828688003F7D50CE0FFF7C5FC06466D
:101A600005E000BFFFF7C0FC801B6428F0D82868A1
:101A70008003F7D420789A4E80074FF001094FF089
:101A8000000839D5686810F00C0F07D06868C0F3FB
:101A90008100022809D16868C00306D4286880073D
:101AA00014D52069012808D110E02069B0B1C6F82A
:101AB0000090FFF799FC074605E00AE1FFF794FC68
:101AC000C01B0228C4D828688007F7D52868616938
:101AD00020F0F80040EAC10028600DE0C6F8008060
:101AE000FFF782FC074604E0FFF77EFCC01B0228DC
:101AF00023D828688007F7D4207800072CD57948A8
:101B0000A169D9B1C0F80090FFF76EFC074604E068
:101B1000FFF76AFCC01B02280FD8686A8007F7D558
:101B200071484FF4FA510068B0FBF1F0009000BF2B
:101B30000098411E0091FAD20EE080E0C0F80080CB
:101B4000FFF752FC074604E0FFF74EFCC01B0228DB
:101B500075D8686A8007F7D42078400760D5E869AF
:101B60000027C00008D4E86940F08050E861E869C7
:101B7000012700F0805000905C480168C90513D42B
:101B80000168834641F480710160FFF72DFC8246B5
:101B900006E000BFFFF728FCA0EB0A0064284ED83F
:101BA000DBF80000C005F5D5E06801280AD008B1CF
:101BB000052813D0286A20F001002862286A20F046
:101BC000040002E0286A40F001002862E06841F267
:101BD000883B98B1FFF708FC82460BE0286A40F08A
:101BE00004002862EEE700BFFFF7FEFBA0EB0A014E
:101BF00059455AD8286A8007F6D50CE0FFF7F4FB60
:101C0000824605E0FFF7F0FBA0EB0A0159454CD8EE
:101C1000286A8007F6D41FB1E86920F08050E86197
:101C2000E06988B36968C1F38101022944D00228C0
:101C3000C6F8608004D0FFF7D7FB044638E034E0F4
:101C4000FFF7D2FB074604E0FFF7CEFBC01B0228DC
:101C50002BD828688001F7D4206AB0F5803F05D1E1
:101C60006868A16820F4003008436860D4E908017E
:101C70000843696821F4741108436860C6F86090ED
:101C8000FFF7B2FB044606E025E000BFFFF7ACFB20
:101C9000001B022809D828688001F7D51BE000BF87
:101CA000FFF7A2FB001B022802D90320BDE8F88F32
:101CB00028688001F4D40EE00128F7D06868226A11
:101CC00000F48031914204D1616A00F470108842BE
:101CD00001D00120EAE70020E8E700000010024000
:101CE0000000424280044242380000200070004060
:101CF00070B5040009D0606A002540B125616561B6
:101D0000A56294F8510040B10CE0012070BD6068FC
:101D1000B0F5827FF4D0E561F2E784F850502046B8
:101D200000F040F8022084F851002068016821F09A
:101D300040010160A088218900F4827001F404410F
:101D40000843A18901F400610843217C01F00201EC
:101D50000843217D01F001010843218B01F400714A
:101D60000843217F01F03801084394F8201001F066
:101D700080010843218D01F4005108432168086067
:101D8000A069042101EA1040216848602068C16907
:101D900021F40061C1616565012084F851000020D3
:101DA00070BD000030B585B0002400940194029409
:101DB000039400681449884223D11448816941F48E
:101DC00080518161816901F480510491816941F000
:101DD0000401816180690E4D00F004000490A02090
:101DE0000090022001900320039069462846FFF7E7
:101DF00005FA4020CDE90004694628460294FFF721
:101E0000FDF905B030BD0000003001400010024077
:101E1000000801402DE9F84F044640680025984627
:101E200016460F464FF0040BB0F5827F01D1A06833
:101E300088B194F85000012818D0012084F850008F
:101E4000FFF7D2FA814694F851004FF0000A0128BA
:101E50000ED0022582E084F851B013460A4620468F
:101E6000CDF8008000F036F9BDE8F88F0220FBE7DE
:101E7000002F72D0002E70D084F851B0C4F854A056
:101E8000A763A687E687C4F830A0A4F834A0A4F816
:101E900036A0C4F840A0C4F844A0A068B0F5004F34
:101EA00009D12068016821F04001016020680168C3
:101EB00021F48041016020680168490603D401686B
:101EC00041F040010160E068D8B139E020688168E4
:101ED000C90709D0007BA16B0870A06B401CA063F0
:101EE000E08F401EE0870CE0FFF77EFAA0EB0901CF
:101EF000414503D3B8F1FF3F03D036E0B8F1000FFE
:101F000033D0E08F0028E1D11DE020688168C90747
:101F100009D0C068A16B0880A06B801CA063E08F13
:101F2000401EE0870CE0FFF75FFAA0EB0901414596
:101F300003D3B8F1FF3F03D017E0B8F1000F14D07E
:101F4000E08F0028E1D14A464146204600F087FB59
:101F500008B120206065606D00B10125012084F882
:101F6000510084F850A028467EE70325F6E72DE9C6
:101F7000F84F044690F8500000271D461646894643
:101F800001280DD04FF0010B84F850B0FFF72CFA68
:101F9000804694F85100BA46012804D0022793E005
:101FA0000220BDE8F88FB9F1000F73D0002E71D078
:101FB000032084F85100C4F854A0C4F83090A686D9
:101FC000E686C4F838A0A4F83CA0A4F83EA0C4F863
:101FD00044A0C4F840A0A068B0F5004F09D1206823
:101FE000016821F0400101602068016841F48041EE
:101FF000016020680168490603D4016841F040018E
:102000000160E068B0F5006F606803D030B3012E66
:1020100024D041E008B1012E1CD1206B216800883A
:10202000C86006E020688168890709D5216B0988A6
:10203000C160206B801C2063E08E401EE08609E0BA
:10204000FFF7D2F9A0EB0800A84202D3681C01D028
:1020500031E07DB3E08E0028E4D120E0206B2168E0
:102060000078087306E020688168890709D5216B2C
:1020700009780173206B401C2063E08E401EE086CF
:102080000AE0FFF7B1F9A0EB0800A84203D3681CEF
:1020900002D010E017E06DB1E08E0028E3D1424697
:1020A0002946204600F009FB08B120206065A068A1
:1020B00018B106E0FFE7032706E02068C1688068E2
:1020C0000090606D00B1012784F851B084F850A0F1
:1020D000384666E72DE9F84F044690F8500000278F
:1020E0000A9E1D4692468B464FF0010901280ED0EC
:1020F000012084F85000FFF777F9804694F85100EA
:10210000616801280CD0B1F5827F07D102E002207E
:10211000BDE8F88FA16809B9042801D00227C2E000
:10212000BBF1000F27D0BAF1000F24D01DB394F8F3
:102130005100042802D0052084F851000020606579
:10214000C4F838A0E587A587C4F830B0E586A58631
:102150002064606420680168490603D4016841F086
:1021600040010160E068B0F5006F606805D0E8B339
:10217000012D46D07FE0012795E008B1012D39D12E
:10218000206B21680088C860206B801C2063E08E73
:10219000401EE0862EE02068816889070FD5E18E19
:1021A00069B1B9F1010F0AD1216B0988C160206BB7
:1021B000801C2063E08E401EE0864FF000092068FE
:1021C0008168C9070CD0E18F51B1C068A16B08804C
:1021D000A06B801CA063E08F401EE0874FF00109D8
:1021E000FFF702F9A0EB0800B04200E009E001D3DC
:1021F000701C50D1E08E0028CDD1E08F0028CAD1CC
:102200003FE0206B216800780873206B401C20633E
:10221000E08E401EE0862EE02068816889070FD599
:10222000E18E69B1B9F1010F0AD1216B097801730F
:10223000206B401C2063E08E401EE0864FF00009BA
:1022400020688168C9070CD0E18F51B1C068A16BCB
:102250000870A06B401CA063E08F401EE0874FF029
:102260000109FFF7C1F8A0EB0800B04202D3701CCF
:1022700001D010E07EB1E08E0028CDD1E08F0028A3
:10228000CAD142463146204600F017FA28B101274C
:102290002020606507E0032705E0A06818B92068E2
:1022A000C16880680090012084F85100002084F803
:1022B000500038462CE710B5401EB0F1807F01D3A6
:1022C000012010BD4FF0E02460610F21601700F085
:1022D000A5FA0020A06107202061002010BDFEE7C4
:1022E00001684A69D24352050FD46FF480624A6193
:1022F000002140F8301F202242738173026942F0AE
:102300000402026101730120704700207047000041
:10231000F8B50446C06A1E460D461746082807D081
:10232000012805D010F5803F02D0206B122804D17F
:102330002068016841F480710160134600224FF06B
:1023400001112046009600F057F840B1206800685F
:10235000C00502D54FF4007020640320F8BD206949
:10236000B0F5804F0ED00620216800EAD51040F06D
:10237000F000086133463A460B49204600F070F8F9
:1023800078B902E005F0FE0000E0E8B221680861DB
:10239000054933463A46891F204600F061F8002877
:1023A000DCD00120F8BD00000800010070B5164621
:1023B0000D4604460DE02046FFF792FF08B10120CC
:1023C00070BD681C05D0FFF70FF8801BA84207D826
:1023D00035B120684069C0434007ECD4002070BD8F
:1023E000002044F8300F20216173A073216941F06F
:1023F000200121612073E2E72DE9F0471E46904657
:102400000D460446C1F30747DDF8209008E0701C34
:1024100006D0FEF7E9FFA0EB0900B0420FD876B175
:102420002068012F18D0806925EA00000004000C04
:1024300014D000214145EAD00020BDE8F0870020FB
:1024400044F8300F20216173A073216941F020010D
:10245000216120730120F0E74069E5E70121E9E708
:102460002DE9F0479A4691460E46044600254FF066
:102470002008C1F3074725E020684069C0434005B4
:1024800014D42068016841F40071016021686FF480
:1024900080604861256384F83D8084F83E50206C5C
:1024A00040F00400206484F83C501FE0B9F1FF3F85
:1024B00008D0FEF799FFA0EB0A0149450CD8B9F105
:1024C000000F09D02068012F13D0806926EA000090
:1024D0000004000C0BD0CFE744F8305F84F80D8087
:1024E000A573206940F02000206125730120BDE81C
:1024F000F0874069EAE770B516460D4604460DE0E0
:102500002046FFF7EDFE08B1012070BD681C05D024
:10251000FEF76AFF801BA84207D835B120684069E2
:10252000C0430006ECD4002070BD002044F8300FFA
:1025300020216173A073216941F020012161207382
:10254000E2E700002DE9F04186B000252D48009516
:10255000019502950395816941F0100181618169BE
:1025600001F010010491816941F0200181618169CC
:1025700001F020010491816941F0040181618169C8
:1025800001F004010491816941F0080181618069D1
:102590001D4F00F008004FF4005404900022214623
:1025A0003846FEF71BFFDFF86480002248F2100176
:1025B0004046FEF713FF0126CDE9004602240294AF
:1025C000694638460394FEF719FE1020CDE900064F
:1025D000CDE9025469464046FEF710FECDE900659C
:1025E00069460B480295FEF709FEA0030090CDE96D
:1025F0000164694640460394FEF700FE06B0BDE85C
:10260000F08100000010024000100140000801406D
:10261000000C01400F4810B50D4901604FF4827164
:102620004160002102228160C0E90312012242615F
:10263000520282611822C0E90721416281620A21A7
:10264000C162FFF755FB002801D072B6FEE710BD4E
:102650000030014090000020FEE7FEE77047F8B52B
:10266000044640684FF48273984217D1A0684FF433
:102670008065B0F5004F01D0A8420FD120680668F0
:1026800026F0400606606068984207D1A068A8421C
:1026900004D100920B460022012103E000920B4678
:1026A00000228021204600F019F8002804D0606D37
:1026B00040F0200060650320F8BD38B50B4600925D
:1026C00004460022802100F009F8002804D0606D43
:1026D00040F020006065032038BD00002DE9F8437C
:1026E0001E46914688460446089DFEF77DFE401B27
:1026F000351AFEF779FE074625480068C0F3CB304F
:10270000684338E0701C37D0FEF76EFEC01BA8424D
:1027100003D215B1009860B32CE02068416821F025
:10272000E00141606068B0F5827F0BD1A068B0F530
:10273000004F02D0B0F5806F04D12068016821F00D
:1027400040010160A06AB0F5005F09D1206801680E
:1027500021F4005101602068016841F400510160DA
:10276000012084F85100002084F850000320BDE8C7
:10277000F8830025401E00902068816838EA010037
:1027800004D000214945BDD10020F0E70121F9E73F
:10279000380000207047FEF7B5BF30B58FB0282154
:1027A0006846FDF76BFD14210AA8FDF767FD0121BE
:1027B000080400240491CDE90010CDE90804029436
:1027C000022507956846FFF703F908B172B6FEE7E0
:1027D0000F200A90CDE90B540D9400210AA80E9405
:1027E000FFF71AF8002801D072B6FEE70FB030BD2F
:1027F0007047FEE7490050EAC12018BF04204A0D87
:1028000018BF40F0010040F2FF72B2EB515F08BF09
:1028100040F00200012808BF052070470907090E93
:10282000002804DB00F1E02080F80014704700F07D
:102830000F0000F1E02080F8141D704710B5012151
:10284000312000F031F800212D2000F02DF8082172
:10285000BDE810402D2000F027B8000031B50F4C26
:102860009DF80000002240F0C0008DF8000010210B
:102870002046FEF7B3FD6423012269460848FFF7AE
:1028800076FB6423062207490548FFF7C3FA0122B5
:1028900010212046FEF7A2FD38BD000000080140CF
:1028A000900000202400002038B540F040008DF852
:1028B00000000A4C8DF80110002210212046FEF77E
:1028C0008DFD6423022269460548FFF750FB012273
:1028D00010212046FEF782FD38BD000000080140AF
:1028E0009000002010B5802000F050F80024202037
:1028F00000F06CF8641C462CF9DB10BD10B53220DA
:10290000FEF76AFC302000F041F80520FEF764FC79
:10291000302000F03BF80120FEF75EFC302000F094
:1029200035F80A20FEF758FC202000F02FF80A2086
:10293000FEF752FC282000F029F80120FEF74CFC9D
:10294000082000F023F80120FEF746FC012000F0EB
:102950001DF80120FEF740FC0120FEF73DFC06209B
:1029600000F014F80120FEF737FCBDE810400C2001
:1029700000F00CB810B1012805D102E041F080014F
:1029800001E041F0C001C8B2AFF300801CB500F017
:10299000F00141F00C028DF8042041F00801000123
:1029A0008DF8051040F00C018DF8061040F008007D
:1029B0008DF8070064200090042301AA4E210248EC
:1029C000FEF7DCFD1CBD00003C0000201CB500F043
:1029D000F00141F00D028DF8042041F009010001E1
:1029E0008DF8051040F00D018DF8061040F009003B
:1029F0008DF8070064200090042301AA4E210248AC
:102A0000FEF7BCFD1CBD00003C00002070B586B088
:102A10000D4600F05DFACDE9000108A2082102A8E8
:102A2000FDF7DEFB002402AE03E0305DFFF7CEFFD2
:102A3000641CAC42F9DB06B070BD000025660000E6
:102A400010B5044602E0641CFFF7C0FF20780028A0
:102A5000F9D110BD92B024216846FDF70FFC242166
:102A600009A8FDF70BFCFEF755FEFFF796FEFFF7F2
:102A700069FDFFF7CFFD3D483B494FF480420160BF
:102A80003B49416000218160C0E9031241618161DD
:102A9000C1610162FEF7AEFC08B172B6FEE7FFF756
:102AA0002DFFFFF7CBFEDFF8CC804FF4FA79A8F1C9
:102AB00024043220FFF7D2FEB8F900102180B8F9C3
:102AC00002506580B8F90470A780084600F0AAFAA1
:102AD00006462061284600F0A5FA054660613846A2
:102AE00000F0A0FA0146A06100F0B4FA07462946BA
:102AF000084600F0AFFA05463146084600F0AAFA4B
:102B0000294600F011FA394600F00EFA00F0E0F91B
:102B100000F036F800F070F8E061A16800F066FBA4
:102B2000206200F063FA002800DA4042062802DD45
:102B3000E068401CE060FFF7D5FE02210020FFF7AF
:102B400019FF0DA0FFF77CFF08210120FFF712FFFE
:102B5000E06800F067FA0221FFF758FFE069A06023
:102B60004846FEF739FBA4E7005400403C00002033
:102B7000A08601002400002053746570733A0000A1
:102B80002DE9F04106460F4600F0BCF8041E0D4644
:102B900018BF0120284320F00040C0F17F6000F101
:102BA000E040C00F0ED0301C18BF0120384320F089
:102BB0000040C0F17F6000F1E040C00F04BF012081
:102BC000FDF78BFB20462946BDE8F08110B50029B2
:102BD0000AD00878002807D005487844FDF7EAFEB7
:102BE000002801D0002010BD0248784410BD00002C
:102BF000CE070000C607000021F00042A2F160529B
:102C0000B2F5801F01F0004328BFD2F17F6C0BD9D1
:102C10005FEA001C43EAC20242EB507018BF7047E3
:102C200028BF20F001007047B2F5801FBCBF1846D6
:102C300070474FEA410C1CF5001F02D2084600F015
:102C4000D0BA70B500F009F800000089FFF7F6BFB0
:102C50004FF00040A0F5800070470EF1020E2EF0FC
:102C6000030E5EF8046B364205D4012A43EB0305DC
:102C700015F5001F12D8012841EB010C1CF5001FAF
:102C80000CD80ED14FEAD17C15F5001F0CEB4C0C83
:102C90000CF1020C08BF4CEBD37C04E04FF0080CA5
:102CA00001E04FEAD37C0CEB4C0526FA05F606F062
:102CB0000706B6F1040C06D20EEB860CBDE8704098
:102CC0004CF0010C6047DFE80CF0090B02024FF0FA
:102CD00000414FF00000A1F5002170BD19461046DB
:102CE000012851EB010418BFD4F5001484BF002063
:102CF00001F0004170BD0808A0F500114FEA310154
:102D0000704700002DE9F04101F5801CBCF5001F63
:102D1000C0F2C3804FEA115C21EA0C510CF1FD0CAA
:102D200041F480115FEA5C0C0CF5C07C01D34000DB
:102D300049413DA4890241EA905187028E0E0A0C56
:102D4000A45D04FB04F602FB06F6C6F14046A4FBB4
:102D50000662F60D46EA422606FB06F4A4FB0123B2
:102D60005242C3F1404338BF5B1EA6FB024200241F
:102D7000E6FB0324D20B42EA4446A6FB0623A1FB52
:102D800002E2A3FB07E4A4184FF0000252F1000294
:102D9000E3FB01426442C2F1404E38BFAEF1010E86
:102DA000A6FB04234FF00002E6FB0E32A2FB034613
:102DB0004FF00004B61954F10004E2FB0264A1FBD9
:102DC00006E6A4FB07E816EB08064FF0000858F1EA
:102DD0000008E4FB01687642C8F1405838BFA8F10A
:102DE0000108A2FB06E4A3FB08E52D194FF000043F
:102DF00054F10004E2FB0854A1FB05E6A7FB04E83C
:102E000018EB06084FF0000656F10006E1FB0486B9
:102E100018F1200556F10006A809A8F11B08B10910
:102E200008F03F08B8F10A0F40EA86601CD901EBB0
:102E30000C51BDE8F08100BFFCF5EEE8E2DDD8D32F
:102E4000CFCBC7C3C0BDB9B6B4B1AEACA9A7A5A31B
:102E5000A19F9D9B9A9896959392908F8D8C8B892C
:102E60008887868584838281A0FB006800FB01F24D
:102E700008EB4208B8EB872807D5341858EB010453
:102E8000D5D5401C51F10001D1E7341A78EB01048B
:102E9000CDD4401E71F10001C9E75FEA4C0C5FEA36
:102EA0009C5C0DD105D34FF0000001F00041BDE85E
:102EB000F081BDE8F04170B5FFF7CFFE6DDBFFBEDE
:102EC000BDE8F0414FF00000004970470000F87F76
:102ED00043004FEAD30C4FEA3C0C43401FBF40076E
:102EE0000CF1605113F0FE4F70471CF0006F03D1DE
:102EF00000200CF0004170470CF0004343EA507092
:102F000010B540EACC0000F026F900BF00000092A6
:102F10004FEA0001FFF7EFBE4FF000414FF0000015
:102F2000A1F500217047000090EA010F48BF81F031
:102F3000004100F16281421A3CBF801A89184FEAB1
:102F4000D0524FF07F4C1CEA410FA2EBD15318BF77
:102F50009CEA026F00F03B804FF0004C4CEA0020EE
:102F60004CEA012121FA03FC10EB0C0C1ED202F1F9
:102F7000FF325FEA1C2040EBC25038BF70471CF0A4
:102F80007F0F4FEA400C18BFBCF17F4F38BF70472E
:102F9000C3F12003994008BF20F00100BCF17F4F2E
:102FA00038BF7047A0F1C04000F01BB94FEA3C00A9
:102FB000000A40EBC25028BF1CF0FF0F4FEA400C44
:102FC000E6D018BFBCF17F4F38BF7047EAE79CEAF4
:102FD000026F05D010EA5C0F08BF00F00040704798
:102FE00010B500F0B8F800BF64FBBE3E41000B0E08
:102FF000D3F19E0208D950F400034FEA032323FAC9
:1030000002F048BF4042704710B500F0A4F800BF7E
:1030100049922480002070476FF0004282EA20002D
:103020007047000010F0004148BF4042B0FA80F302
:1030300010FA03F2C3F19D030BD051EAC35101EB27
:103040001220530638BF704700F1010008BF20F07E
:10305000010070474FF47F0C1CEAD0121EBF1CEA1F
:10306000D11392EA0C0F93EA0C0F00F0478090EA1C
:10307000010F48BF42F480724FF0004C4CEA002030
:103080004CEA012102EB0302A0FB0113A2F50002AE
:10309000002918BF43F001035B0028BF4FEA330348
:1030A00042EB22425FEA132C4CEBC2502EBFBCEB2A
:1030B000436FB2F57C0F70474FEA036CBCF1004FD1
:1030C00008BF20F00100B2F57C0F38BF70470BD568
:1030D00082F0FF0212F5803FC8BF704700F1C04088
:1030E000D8BF00F00040704700F5000C5FEA4C0CC0
:1030F00048BF7047B0F1C04000F073B890EA010FCC
:103100000CEAD11348BF42F48072624538BF634570
:1031100004D280EA010000F00040704710B500F0D2
:103120001AF800BF8900013E00F007B800F009B8A6
:103130005FEA410C5FEA1C6C08D080EA010000F0F5
:1031400050B85FEA400C5FEA1C6CF6D14FF00040CB
:10315000A0F5800070470EF1020E2EF0030E5EF80F
:10316000044B244204D44FEA4102B2F17F4F11D8FC
:103170004FEA4003B3F17F4F0CD80ED14FEAD07C19
:10318000B2F17F4F0CEB4C0C0CF1020C08BF4CEB76
:10319000D17C04E04FF0080C01E04FEAD17C0CEB4D
:1031A0004C0324FA03F404F00704B4F1040C06D22F
:1031B0000EEB840CBDE810404CF0010C6047DFE8DA
:1031C0000CF0070802024FF00040A0F5800010BD8F
:1031D0000846420018BFD2F1807288BF00F000405C
:1031E00010BDFF2141EAD050C005704790EA010FA1
:1031F00048BF81F000413FF59EAE421A04D882F0EC
:103200000042A0EB020011444FEAD0524FF07F4C35
:103210001CEA410FA2EBD15318BF9CEA026F4AD0BF
:103220004FF0004C4CEA00204CEA012121FA03FC4B
:10323000B0EB0C0C0FD412F0FE0F36D05FEA4C004E
:103240001DD5001240EBC25038BF70471CF03F0F35
:1032500018BF70470BE0A2F101025FEA1C2040EBAF
:10326000C25038BF70471CF07F0F18BF7047C3F1C2
:103270002003994014BF401E20F0010070478008D1
:103280004FEA122308BF7047B0FA80FCA2EB0C0291
:10329000CCF1280C60FA0CF093EA122F04BF00EB7B
:1032A000C25070474FEAC3707047130A5FEADC10E0
:1032B00008BF7047F6E79CEA026F04D010EA5C0F83
:1032C00008BF0020704710B5FFF745FF40DFF63E0E
:1032D00081F000407047FDF7DFB8000000000000FB
:1032E00000000102030406070809000000000102B3
:1032F0000304000002400000000000A000000000E5
:1033000005400000000000C8000000000C40000064
:103310000000409C00000000194000000020BCBEDE
:103320000000000034400000BFC91B8E00000004F4
:10333000B5400000504BCFD06607E2CF010000003F
:103340006C4100003E8251AADFEEA734010000006C
:10335000D9420000DCB5A0E23A301F97FFFFFFFF23
:10336000B4450000FD25A0C8E9A3C14FFFFFFFFF42
:10337000FF3F00000000008000000000FF3F000051
:103380000000008000000000C4330008000000209E
:103390003C00000028010008003400083C00002028
:1033A0000C070000440100081C000000430000005E
:1033B000F8FFFFFF0C0000000E0000000F000000EF
:1033C0002E000000000000000000000000000000CF
:1033D00000000000000000000000000000000000ED
:1033E00000000000000000000000000000000000DD
:1033F0000100000010000000000000000024F400A4
:04000005080000ED02
:00000001FF
